{
  "contractName": "Banking",
  "abi": [
    {
      "inputs": [],
      "payable": false,
      "stateMutability": "nonpayable",
      "type": "constructor"
    },
    {
      "anonymous": false,
      "inputs": [
        {
          "indexed": false,
          "internalType": "uint256",
          "name": "_serialNumber",
          "type": "uint256"
        },
        {
          "indexed": false,
          "internalType": "bytes32",
          "name": "_name",
          "type": "bytes32"
        },
        {
          "indexed": false,
          "internalType": "bytes32",
          "name": "_location",
          "type": "bytes32"
        },
        {
          "indexed": false,
          "internalType": "bytes32",
          "name": "_email",
          "type": "bytes32"
        },
        {
          "indexed": false,
          "internalType": "uint256",
          "name": "_createdAt",
          "type": "uint256"
        },
        {
          "indexed": false,
          "internalType": "uint256",
          "name": "_balance",
          "type": "uint256"
        }
      ],
      "name": "AccountCreated",
      "type": "event"
    },
    {
      "anonymous": false,
      "inputs": [
        {
          "indexed": false,
          "internalType": "uint256",
          "name": "_amount",
          "type": "uint256"
        },
        {
          "indexed": false,
          "internalType": "uint256",
          "name": "_transacNumber",
          "type": "uint256"
        },
        {
          "indexed": false,
          "internalType": "uint256",
          "name": "_currentAccountSerial",
          "type": "uint256"
        },
        {
          "indexed": false,
          "internalType": "bytes32",
          "name": "_transactionType",
          "type": "bytes32"
        }
      ],
      "name": "TransactionCompleted",
      "type": "event"
    },
    {
      "constant": true,
      "inputs": [
        {
          "internalType": "uint256",
          "name": "",
          "type": "uint256"
        }
      ],
      "name": "accounts",
      "outputs": [
        {
          "internalType": "uint256",
          "name": "serial",
          "type": "uint256"
        },
        {
          "internalType": "uint256",
          "name": "createdAt",
          "type": "uint256"
        },
        {
          "internalType": "string",
          "name": "name",
          "type": "string"
        },
        {
          "internalType": "string",
          "name": "location",
          "type": "string"
        },
        {
          "internalType": "string",
          "name": "email",
          "type": "string"
        },
        {
          "internalType": "address",
          "name": "creator",
          "type": "address"
        },
        {
          "internalType": "uint256",
          "name": "balance",
          "type": "uint256"
        },
        {
          "internalType": "bool",
          "name": "doesExist",
          "type": "bool"
        }
      ],
      "payable": false,
      "stateMutability": "view",
      "type": "function"
    },
    {
      "constant": true,
      "inputs": [],
      "name": "bankBalance",
      "outputs": [
        {
          "internalType": "uint256",
          "name": "",
          "type": "uint256"
        }
      ],
      "payable": false,
      "stateMutability": "view",
      "type": "function"
    },
    {
      "constant": true,
      "inputs": [],
      "name": "serialNumber",
      "outputs": [
        {
          "internalType": "uint256",
          "name": "",
          "type": "uint256"
        }
      ],
      "payable": false,
      "stateMutability": "view",
      "type": "function"
    },
    {
      "constant": true,
      "inputs": [],
      "name": "transacNum",
      "outputs": [
        {
          "internalType": "uint256",
          "name": "",
          "type": "uint256"
        }
      ],
      "payable": false,
      "stateMutability": "view",
      "type": "function"
    },
    {
      "constant": true,
      "inputs": [
        {
          "internalType": "uint256",
          "name": "",
          "type": "uint256"
        }
      ],
      "name": "transactions",
      "outputs": [
        {
          "internalType": "uint256",
          "name": "transacNum",
          "type": "uint256"
        },
        {
          "internalType": "uint256",
          "name": "currentBalance",
          "type": "uint256"
        },
        {
          "internalType": "uint256",
          "name": "amountTransacted",
          "type": "uint256"
        },
        {
          "internalType": "uint256",
          "name": "createdAt",
          "type": "uint256"
        },
        {
          "internalType": "string",
          "name": "transacType",
          "type": "string"
        },
        {
          "internalType": "uint256",
          "name": "accountSerialNumber",
          "type": "uint256"
        }
      ],
      "payable": false,
      "stateMutability": "view",
      "type": "function"
    },
    {
      "constant": false,
      "inputs": [
        {
          "internalType": "address payable",
          "name": "_creator",
          "type": "address"
        },
        {
          "internalType": "string",
          "name": "_name",
          "type": "string"
        },
        {
          "internalType": "string",
          "name": "_email",
          "type": "string"
        },
        {
          "internalType": "string",
          "name": "_location",
          "type": "string"
        }
      ],
      "name": "createAccount",
      "outputs": [],
      "payable": true,
      "stateMutability": "payable",
      "type": "function"
    },
    {
      "constant": false,
      "inputs": [
        {
          "internalType": "uint256",
          "name": "_serial",
          "type": "uint256"
        },
        {
          "internalType": "uint256",
          "name": "_amount",
          "type": "uint256"
        },
        {
          "internalType": "address payable",
          "name": "_creator",
          "type": "address"
        }
      ],
      "name": "addBalance",
      "outputs": [],
      "payable": true,
      "stateMutability": "payable",
      "type": "function"
    },
    {
      "constant": false,
      "inputs": [
        {
          "internalType": "uint256",
          "name": "_serial",
          "type": "uint256"
        },
        {
          "internalType": "uint256",
          "name": "_amount",
          "type": "uint256"
        },
        {
          "internalType": "address payable",
          "name": "_creator",
          "type": "address"
        }
      ],
      "name": "withdrawBalance",
      "outputs": [
        {
          "internalType": "bool",
          "name": "_success",
          "type": "bool"
        }
      ],
      "payable": false,
      "stateMutability": "nonpayable",
      "type": "function"
    },
    {
      "constant": false,
      "inputs": [
        {
          "internalType": "uint256",
          "name": "_amount",
          "type": "uint256"
        },
        {
          "internalType": "uint256",
          "name": "_serial_2",
          "type": "uint256"
        },
        {
          "internalType": "uint256",
          "name": "_serial",
          "type": "uint256"
        }
      ],
      "name": "transactAmount",
      "outputs": [],
      "payable": false,
      "stateMutability": "nonpayable",
      "type": "function"
    },
    {
      "constant": false,
      "inputs": [
        {
          "internalType": "uint256",
          "name": "_amount",
          "type": "uint256"
        },
        {
          "internalType": "uint256",
          "name": "_serial",
          "type": "uint256"
        }
      ],
      "name": "getLoan",
      "outputs": [],
      "payable": true,
      "stateMutability": "payable",
      "type": "function"
    },
    {
      "constant": false,
      "inputs": [
        {
          "internalType": "uint256",
          "name": "_installment",
          "type": "uint256"
        },
        {
          "internalType": "uint256",
          "name": "_serial",
          "type": "uint256"
        },
        {
          "internalType": "address payable",
          "name": "_creator",
          "type": "address"
        }
      ],
      "name": "retrieveLoan",
      "outputs": [],
      "payable": true,
      "stateMutability": "payable",
      "type": "function"
    },
    {
      "constant": true,
      "inputs": [
        {
          "internalType": "uint256",
          "name": "_serial",
          "type": "uint256"
        }
      ],
      "name": "getBalance",
      "outputs": [
        {
          "internalType": "uint256",
          "name": "",
          "type": "uint256"
        }
      ],
      "payable": false,
      "stateMutability": "view",
      "type": "function"
    },
    {
      "constant": true,
      "inputs": [
        {
          "internalType": "address payable",
          "name": "_account",
          "type": "address"
        }
      ],
      "name": "getSenderBalance",
      "outputs": [
        {
          "internalType": "uint256",
          "name": "",
          "type": "uint256"
        }
      ],
      "payable": false,
      "stateMutability": "view",
      "type": "function"
    },
    {
      "constant": true,
      "inputs": [],
      "name": "getContractBalance",
      "outputs": [
        {
          "internalType": "uint256",
          "name": "",
          "type": "uint256"
        }
      ],
      "payable": false,
      "stateMutability": "view",
      "type": "function"
    },
    {
      "constant": true,
      "inputs": [],
      "name": "getOwner",
      "outputs": [
        {
          "internalType": "address",
          "name": "",
          "type": "address"
        }
      ],
      "payable": false,
      "stateMutability": "view",
      "type": "function"
    }
  ],
  "bytecode": "0x608060405260008055600060015560006002553480156200001f57600080fd5b50604051806101000160405280600081526020014281526020016040518060400160405280600881526020017f457468657265616c00000000000000000000000000000000000000000000000081525081526020016040518060400160405280600781526020017f4a4320424f53450000000000000000000000000000000000000000000000000081525081526020016040518060400160405280600e81526020017f61646d696e4062616e6b2e636f6d00000000000000000000000000000000000081525081526020013073ffffffffffffffffffffffffffffffffffffffff168152602001600081526020016001151581525060036000808152602001908152602001600020600082015181600001556020820151816001015560408201518160020190805190602001906200015992919062000212565b5060608201518160030190805190602001906200017892919062000212565b5060808201518160040190805190602001906200019792919062000212565b5060a08201518160050160006101000a81548173ffffffffffffffffffffffffffffffffffffffff021916908373ffffffffffffffffffffffffffffffffffffffff16021790555060c0820151816006015560e08201518160070160006101000a81548160ff021916908315150217905550905050620002c1565b828054600181600116156101000203166002900490600052602060002090601f016020900481019282601f106200025557805160ff191683800117855562000286565b8280016001018555821562000286579182015b828111156200028557825182559160200191906001019062000268565b5b50905062000295919062000299565b5090565b620002be91905b80821115620002ba576000816000905550600101620002a0565b5090565b90565b611e3880620002d16000396000f3fe6080604052600436106100e85760003560e01c80637cfa4dbc1161008a578063dee94b4a11610059578063dee94b4a1461045a578063e15cdcc414610663578063f2a40db8146106bb578063fb3d47711461089a576100e8565b80637cfa4dbc1461026f578063893d20e8146102d45780639ace38c21461032b578063b9cc1d9714610402576100e8565b80632a0daeea116100c65780632a0daeea1461019f5780633bd8b71d146101ca5780636b17aa83146102195780636f9fb98a14610244576100e8565b806306789aba146100ed5780631e0104391461012557806328657aa514610174575b600080fd5b6101236004803603604081101561010357600080fd5b810190808035906020019092919080359060200190929190505050610917565b005b34801561013157600080fd5b5061015e6004803603602081101561014857600080fd5b8101908080359060200190929190505050610ad6565b6040518082815260200191505060405180910390f35b34801561018057600080fd5b50610189610afb565b6040518082815260200191505060405180910390f35b3480156101ab57600080fd5b506101b4610b01565b6040518082815260200191505060405180910390f35b3480156101d657600080fd5b50610217600480360360608110156101ed57600080fd5b81019080803590602001909291908035906020019092919080359060200190929190505050610b07565b005b34801561022557600080fd5b5061022e610f2a565b6040518082815260200191505060405180910390f35b34801561025057600080fd5b50610259610f30565b6040518082815260200191505060405180910390f35b34801561027b57600080fd5b506102be6004803603602081101561029257600080fd5b81019080803573ffffffffffffffffffffffffffffffffffffffff169060200190929190505050610f38565b6040518082815260200191505060405180910390f35b3480156102e057600080fd5b506102e9610f59565b604051808273ffffffffffffffffffffffffffffffffffffffff1673ffffffffffffffffffffffffffffffffffffffff16815260200191505060405180910390f35b34801561033757600080fd5b506103646004803603602081101561034e57600080fd5b8101908080359060200190929190505050610f61565b6040518087815260200186815260200185815260200184815260200180602001838152602001828103825284818151815260200191508051906020019080838360005b838110156103c25780820151818401526020810190506103a7565b50505050905090810190601f1680156103ef5780820380516001836020036101000a031916815260200191505b5097505050505050505060405180910390f35b6104586004803603606081101561041857600080fd5b810190808035906020019092919080359060200190929190803573ffffffffffffffffffffffffffffffffffffffff169060200190929190505050611035565b005b6106616004803603608081101561047057600080fd5b81019080803573ffffffffffffffffffffffffffffffffffffffff169060200190929190803590602001906401000000008111156104ad57600080fd5b8201836020820111156104bf57600080fd5b803590602001918460018302840111640100000000831117156104e157600080fd5b91908080601f016020809104026020016040519081016040528093929190818152602001838380828437600081840152601f19601f8201169050808301925050505050505091929192908035906020019064010000000081111561054457600080fd5b82018360208201111561055657600080fd5b8035906020019184600183028401116401000000008311171561057857600080fd5b91908080601f016020809104026020016040519081016040528093929190818152602001838380828437600081840152601f19601f820116905080830192505050505050509192919290803590602001906401000000008111156105db57600080fd5b8201836020820111156105ed57600080fd5b8035906020019184600183028401116401000000008311171561060f57600080fd5b91908080601f016020809104026020016040519081016040528093929190818152602001838380828437600081840152601f19601f82011690508083019250505050505050919291929050505061126c565b005b6106b96004803603606081101561067957600080fd5b810190808035906020019092919080359060200190929190803573ffffffffffffffffffffffffffffffffffffffff1690602001909291905050506115c3565b005b3480156106c757600080fd5b506106f4600480360360208110156106de57600080fd5b810190808035906020019092919050505061184b565b604051808981526020018881526020018060200180602001806020018773ffffffffffffffffffffffffffffffffffffffff1673ffffffffffffffffffffffffffffffffffffffff1681526020018681526020018515151515815260200184810384528a818151815260200191508051906020019080838360005b8381101561078a57808201518184015260208101905061076f565b50505050905090810190601f1680156107b75780820380516001836020036101000a031916815260200191505b50848103835289818151815260200191508051906020019080838360005b838110156107f05780820151818401526020810190506107d5565b50505050905090810190601f16801561081d5780820380516001836020036101000a031916815260200191505b50848103825288818151815260200191508051906020019080838360005b8381101561085657808201518184015260208101905061083b565b50505050905090810190601f1680156108835780820380516001836020036101000a031916815260200191505b509b50505050505050505050505060405180910390f35b3480156108a657600080fd5b506108fd600480360360608110156108bd57600080fd5b810190808035906020019092919080359060200190929190803573ffffffffffffffffffffffffffffffffffffffff169060200190929190505050611a88565b604051808215151515815260200191505060405180910390f35b670de0b6b3a7640000828161092857fe5b0460036000838152602001908152602001600020600601600082825401925050819055506001600081548092919060010191905055506040518060c00160405280600154815260200160036000848152602001908152602001600020600601548152602001670de0b6b3a7640000848161099e57fe5b0481526020014281526020016040518060400160405280600f81526020017f4c6f616e5472616e73616374696f6e0000000000000000000000000000000000815250815260200182815250600460006001548152602001908152602001600020600082015181600001556020820151816001015560408201518160020155606082015181600301556080820151816004019080519060200190610a42929190611d5e565b5060a082015181600501559050507f30bf4b72d8fd6ed273a42c7d6387deb12830c381458996419db8c925535c17bf670de0b6b3a76400008381610a8257fe5b046001548360405180848152602001838152602001828152602001807f4c6f616e5472616e73616374696f6e0000000000000000000000000000000000815250602001935050505060405180910390a15050565b6000806003600084815260200190815260200160002060060154905080915050919050565b60025481565b60005481565b6001670de0b6b3a76400008481610b1a57fe5b0401600360008381526020019081526020016000206006015410610eb757670de0b6b3a76400008381610b4957fe5b046003600083815260200190815260200160002060060160008282540392505081905550670de0b6b3a76400008381610b7e57fe5b0460036000848152602001908152602001600020600601600082825401925050819055506001600081548092919060010191905055507f30bf4b72d8fd6ed273a42c7d6387deb12830c381458996419db8c925535c17bf670de0b6b3a76400008481610be657fe5b0460015460005460405180848152602001838152602001828152602001807f5472616e736665724d6f6e657953656e74000000000000000000000000000000815250602001935050505060405180910390a16040518060c00160405280600154815260200160036000848152602001908152602001600020600601548152602001670de0b6b3a76400008581610c7857fe5b0481526020014281526020016040518060400160405280601181526020017f5472616e736665724d6f6e657953656e74000000000000000000000000000000815250815260200182815250600460006001548152602001908152602001600020600082015181600001556020820151816001015560408201518160020155606082015181600301556080820151816004019080519060200190610d1c929190611d5e565b5060a082015181600501559050506001600081548092919060010191905055507f30bf4b72d8fd6ed273a42c7d6387deb12830c381458996419db8c925535c17bf670de0b6b3a76400008481610d6e57fe5b0460015460005460405180848152602001838152602001828152602001807f5472616e736665724d6f6e657952656365697665640000000000000000000000815250602001935050505060405180910390a16040518060c00160405280600154815260200160036000858152602001908152602001600020600601548152602001670de0b6b3a76400008581610e0057fe5b0481526020014281526020016040518060400160405280601581526020017f5472616e736665724d6f6e657952656365697665640000000000000000000000815250815260200183815250600460006001548152602001908152602001600020600082015181600001556020820151816001015560408201518160020155606082015181600301556080820151816004019080519060200190610ea4929190611d5e565b5060a08201518160050155905050610f25565b6040517f08c379a00000000000000000000000000000000000000000000000000000000081526004018080602001828103825260128152602001807f496e73756666696369656e742046756e6473000000000000000000000000000081525060200191505060405180910390fd5b505050565b60015481565b600047905090565b60008173ffffffffffffffffffffffffffffffffffffffff16319050919050565b600033905090565b6004602052806000526040600020600091509050806000015490806001015490806002015490806003015490806004018054600181600116156101000203166002900480601f0160208091040260200160405190810160405280929190818152602001828054600181600116156101000203166002900480156110255780601f10610ffa57610100808354040283529160200191611025565b820191906000526020600020905b81548152906001019060200180831161100857829003601f168201915b5050505050908060050154905086565b6001670de0b6b3a7640000848161104857fe5b040160036000848152602001908152602001600020600601541061122657670de0b6b3a7640000838161107757fe5b0460036000848152602001908152602001600020600601600082825403925050819055506001600081548092919060010191905055506040518060c00160405280600154815260200160036000858152602001908152602001600020600601548152602001670de0b6b3a764000085816110ed57fe5b0481526020014281526020016040518060400160405280600d81526020017f4c6f616e52657472696576616c00000000000000000000000000000000000000815250815260200183815250600460006001548152602001908152602001600020600082015181600001556020820151816001015560408201518160020155606082015181600301556080820151816004019080519060200190611191929190611d5e565b5060a082015181600501559050507f30bf4b72d8fd6ed273a42c7d6387deb12830c381458996419db8c925535c17bf670de0b6b3a764000084816111d157fe5b046001548460405180848152602001838152602001828152602001807f4c6f616e52657472696576616c00000000000000000000000000000000000000815250602001935050505060405180910390a1611267565b6112318284836115c3565b670de0b6b3a7640000838161124257fe5b0460036000848152602001908152602001600020600601600082825403925050819055505b505050565b60038473ffffffffffffffffffffffffffffffffffffffff16311061154f57600080815480929190600101919050555060405180610100016040528060005481526020014281526020018481526020018281526020018381526020018573ffffffffffffffffffffffffffffffffffffffff1681526020016002815260200160011515815250600360008054815260200190815260200160002060008201518160000155602082015181600101556040820151816002019080519060200190611336929190611d5e565b506060820151816003019080519060200190611353929190611d5e565b506080820151816004019080519060200190611370929190611d5e565b5060a08201518160050160006101000a81548173ffffffffffffffffffffffffffffffffffffffff021916908373ffffffffffffffffffffffffffffffffffffffff16021790555060c0820151816006015560e08201518160070160006101000a81548160ff021916908315150217905550905050600280600082825401925050819055506001600081548092919060010191905055506040518060c00160405280600154815260200160028152602001600281526020014281526020016040518060400160405280600a81526020017f4e65774163636f756e740000000000000000000000000000000000000000000081525081526020016000548152506004600060015481526020019081526020016000206000820151816000015560208201518160010155604082015181600201556060820151816003015560808201518160040190805190602001906114c8929190611d5e565b5060a082015181600501559050507f30bf4b72d8fd6ed273a42c7d6387deb12830c381458996419db8c925535c17bf600260015460005460405180848152602001838152602001828152602001807f4e65774163636f756e7400000000000000000000000000000000000000000000815250602001935050505060405180910390a16115bd565b6040517f08c379a00000000000000000000000000000000000000000000000000000000081526004018080602001828103825260128152602001807f496e73756666696369656e742046756e6473000000000000000000000000000081525060200191505060405180910390fd5b50505050565b6001670de0b6b3a764000083816115d657fe5b04018173ffffffffffffffffffffffffffffffffffffffff1631106117d857670de0b6b3a7640000828161160657fe5b046003600085815260200190815260200160002060060160008282540192505081905550670de0b6b3a7640000828161163b57fe5b046002600082825401925050819055506001600081548092919060010191905055506040518060c00160405280600154815260200160036000868152602001908152602001600020600601548152602001670de0b6b3a7640000848161169d57fe5b0481526020014281526020016040518060400160405280600d81526020017f416464696e6742616c616e636500000000000000000000000000000000000000815250815260200184815250600460006001548152602001908152602001600020600082015181600001556020820151816001015560408201518160020155606082015181600301556080820151816004019080519060200190611741929190611d5e565b5060a082015181600501559050507f30bf4b72d8fd6ed273a42c7d6387deb12830c381458996419db8c925535c17bf670de0b6b3a7640000838161178157fe5b0460015460005460405180848152602001838152602001828152602001807f416464696e6742616c616e636500000000000000000000000000000000000000815250602001935050505060405180910390a1611846565b6040517f08c379a00000000000000000000000000000000000000000000000000000000081526004018080602001828103825260128152602001807f496e73756666696369656e742046756e6473000000000000000000000000000081525060200191505060405180910390fd5b505050565b6003602052806000526040600020600091509050806000015490806001015490806002018054600181600116156101000203166002900480601f0160208091040260200160405190810160405280929190818152602001828054600181600116156101000203166002900480156119035780601f106118d857610100808354040283529160200191611903565b820191906000526020600020905b8154815290600101906020018083116118e657829003601f168201915b505050505090806003018054600181600116156101000203166002900480601f0160208091040260200160405190810160405280929190818152602001828054600181600116156101000203166002900480156119a15780601f10611976576101008083540402835291602001916119a1565b820191906000526020600020905b81548152906001019060200180831161198457829003601f168201915b505050505090806004018054600181600116156101000203166002900480601f016020809104026020016040519081016040528092919081815260200182805460018160011615610100020316600290048015611a3f5780601f10611a1457610100808354040283529160200191611a3f565b820191906000526020600020905b815481529060010190602001808311611a2257829003601f168201915b5050505050908060050160009054906101000a900473ffffffffffffffffffffffffffffffffffffffff16908060060154908060070160009054906101000a900460ff16905088565b60006001670de0b6b3a76400008481611a9d57fe5b0401600360008681526020019081526020016000206006015410611ce9578173ffffffffffffffffffffffffffffffffffffffff166108fc849081150290604051600060405180830381858888f19350505050158015611b01573d6000803e3d6000fd5b50670de0b6b3a76400008381611b1357fe5b046003600086815260200190815260200160002060060160008282540392505081905550670de0b6b3a76400008381611b4857fe5b046002600082825403925050819055506001600081548092919060010191905055506040518060c00160405280600154815260200160036000878152602001908152602001600020600601548152602001670de0b6b3a76400008581611baa57fe5b0481526020014281526020016040518060400160405280600a81526020017f5769746864726177616c00000000000000000000000000000000000000000000815250815260200185815250600460006001548152602001908152602001600020600082015181600001556020820151816001015560408201518160020155606082015181600301556080820151816004019080519060200190611c4e929190611d5e565b5060a082015181600501559050507f30bf4b72d8fd6ed273a42c7d6387deb12830c381458996419db8c925535c17bf670de0b6b3a76400008481611c8e57fe5b0460015460005460405180848152602001838152602001828152602001807f5769746864726177616c00000000000000000000000000000000000000000000815250602001935050505060405180910390a160019050611d57565b6040517f08c379a00000000000000000000000000000000000000000000000000000000081526004018080602001828103825260128152602001807f496e73756666696369656e742046756e6473000000000000000000000000000081525060200191505060405180910390fd5b9392505050565b828054600181600116156101000203166002900490600052602060002090601f016020900481019282601f10611d9f57805160ff1916838001178555611dcd565b82800160010185558215611dcd579182015b82811115611dcc578251825591602001919060010190611db1565b5b509050611dda9190611dde565b5090565b611e0091905b80821115611dfc576000816000905550600101611de4565b5090565b9056fea265627a7a72315820948a7bf2389a73f5fb935c916db3f741ccab3104c1fbb445f8a5371e0b26729764736f6c63430005100032",
  "source": "// SPDX-License-Identifier: MIT\r\npragma solidity >=0.4.21 <0.7.0;\r\n\r\n// import \"github.com/Arachnid/solidity-stringutils/strings.sol\";\r\ncontract Banking {\r\n    //  using strings for *;\r\n\r\n    uint256 public serialNumber = 0;\r\n    uint256 public transacNum = 0;\r\n    uint256 public bankBalance = 0;\r\n\r\n    //Defining a struct to store the account details\r\n    struct Account {\r\n         uint256 serial;\r\n        uint256 createdAt;\r\n        string name;\r\n        string location;\r\n        string email;\r\n        address creator;\r\n        uint256 balance;\r\n        bool doesExist;\r\n    }\r\n\r\n    constructor() public {\r\n        accounts[0] = Account(\r\n            0,\r\n            block.timestamp,\r\n            \"Ethereal\",\r\n            \"JC BOSE\",\r\n            \"admin@bank.com\",\r\n            address(this),\r\n            0,\r\n            true\r\n        );\r\n    }\r\n\r\n    //Defining a struct to store transaction record\r\n    struct Transaction {\r\n        uint256 transacNum;\r\n        uint256 currentBalance;\r\n        uint256 amountTransacted;\r\n        uint256 createdAt;\r\n        string transacType;\r\n        uint256 accountSerialNumber;\r\n    }\r\n    \r\n\r\n\r\n\r\n    // All the mappings present in the contract\r\n    mapping(uint256 => Account) public accounts;\r\n    mapping(uint256 => Transaction) public transactions;\r\n\r\n    // error InsufficientFunds(uint _currentAccountSerialNumber,uint _balanceRequested,uint _balanceAvailable,string _transactionType);\r\n\r\n    event AccountCreated(\r\n        uint256 _serialNumber,\r\n        bytes32 _name,\r\n        bytes32 _location,\r\n        bytes32 _email,\r\n        uint256 _createdAt,\r\n        uint256 _balance\r\n    );\r\n\r\n    event TransactionCompleted(\r\n        uint256 _amount,\r\n        uint256 _transacNumber,\r\n        uint256 _currentAccountSerial,\r\n        bytes32 _transactionType\r\n    );\r\n\r\n\r\n\r\n    //Function to create account , the 2 ETH balance will be taken from your ethereum account and deposited to the banking contract\r\n    function createAccount(\r\n        address payable _creator,\r\n        string memory _name,\r\n        string memory _email,\r\n        string memory _location\r\n    ) public payable {\r\n        if (_creator.balance >= 3) {\r\n            serialNumber++;\r\n            accounts[serialNumber] = Account(\r\n                serialNumber,\r\n                block.timestamp,\r\n                _name,\r\n                _location,\r\n                _email,\r\n                _creator,\r\n                2,\r\n                true\r\n            );\r\n            bankBalance += 2;\r\n            transacNum++;\r\n            transactions[transacNum] = Transaction(\r\n                transacNum,\r\n                2,\r\n                2,\r\n                block.timestamp,\r\n                \"NewAccount\",\r\n                serialNumber\r\n            );\r\n            emit TransactionCompleted(\r\n                2,\r\n                transacNum,\r\n                serialNumber,\r\n                \"NewAccount\"\r\n            );\r\n        } else {\r\n            revert(\"Insufficient Funds\");\r\n            // revert InsufficientFunds(serialNumber,2,_creator.balance-1,'NewAccount');\r\n        }\r\n    }\r\n\r\n\r\n\r\n\r\n    //Function to add balance to your existing acccount ,the balance will be taken from your ethereum account\r\n    function addBalance(\r\n        uint256 _serial,\r\n        uint256 _amount,\r\n        address payable _creator\r\n    ) public payable {\r\n        if (_creator.balance >= _amount / 1000000000000000000 + 1) {\r\n            accounts[_serial].balance += _amount / 1000000000000000000;\r\n            bankBalance += _amount / 1000000000000000000;\r\n            transacNum++;\r\n\r\n            transactions[transacNum] = Transaction(\r\n                transacNum,\r\n                accounts[_serial].balance,\r\n                _amount / 1000000000000000000,\r\n                block.timestamp,\r\n                \"AddingBalance\",\r\n                _serial\r\n            );\r\n\r\n            emit TransactionCompleted(\r\n                _amount / 1000000000000000000,\r\n                transacNum,\r\n                serialNumber,\r\n                \"AddingBalance\"\r\n            );\r\n        } else {\r\n            revert(\"Insufficient Funds\");\r\n            // revert InsufficientFunds(_serial,_amount/1000000000000000000,_creator.balance-1,'AddingBalance');\r\n        }\r\n    }\r\n\r\n\r\n\r\n    //Function to withdraw balance from your existing accounts, the balance will be transferred to your blockchain account\r\n    function withdrawBalance(\r\n        uint256 _serial,\r\n        uint256 _amount,\r\n        address payable _creator\r\n    ) \r\n    external returns (bool _success) {\r\n        if (accounts[_serial].balance >= _amount / 1000000000000000000 + 1) {\r\n            _creator.transfer(_amount);\r\n            accounts[_serial].balance -= _amount / 1000000000000000000;\r\n            bankBalance -= _amount / 1000000000000000000;\r\n            transacNum++;\r\n            transactions[transacNum] = Transaction(\r\n                transacNum,\r\n                accounts[_serial].balance,\r\n                _amount / 1000000000000000000,\r\n                block.timestamp,\r\n                \"Withdrawal\",\r\n                _serial\r\n            );\r\n            emit TransactionCompleted(\r\n                _amount / 1000000000000000000,\r\n                transacNum,\r\n                serialNumber,\r\n                \"Withdrawal\"\r\n            );\r\n            return true;\r\n        } else {\r\n            revert(\"Insufficient Funds\");\r\n            //   revert InsufficientFunds(_serial,_amount/1000000000000000000,accounts[_serial].balance-1,'Withdrawal');\r\n        }\r\n    }\r\n\r\n\r\n\r\n    //Function to virtually send money from one bank account to other\r\n    function transactAmount(\r\n        uint256 _amount,\r\n        uint256 _serial_2,\r\n        uint256 _serial\r\n    ) public {\r\n        if (accounts[_serial].balance >= _amount / 1000000000000000000 + 1) {\r\n            accounts[_serial].balance -= _amount / 1000000000000000000;\r\n            accounts[_serial_2].balance += _amount / 1000000000000000000;\r\n            transacNum++;\r\n            emit TransactionCompleted(\r\n                _amount / 1000000000000000000,\r\n                transacNum,\r\n                serialNumber,\r\n                \"TransferMoneySent\"\r\n            );\r\n            transactions[transacNum] = Transaction(\r\n                transacNum,\r\n                accounts[_serial].balance,\r\n                _amount / 1000000000000000000,\r\n                block.timestamp,\r\n                \"TransferMoneySent\",\r\n                _serial\r\n            );\r\n            transacNum++;\r\n            emit TransactionCompleted(\r\n                _amount / 1000000000000000000,\r\n                transacNum,\r\n                serialNumber,\r\n                \"TransferMoneyReceived\"\r\n            );\r\n            transactions[transacNum] = Transaction(\r\n                transacNum,\r\n                accounts[_serial_2].balance,\r\n                _amount / 1000000000000000000,\r\n                block.timestamp,\r\n                \"TransferMoneyReceived\",\r\n                _serial_2\r\n            );\r\n        } else {\r\n            revert(\"Insufficient Funds\");\r\n            //   revert InsufficientFunds(_serial,_amount/1000000000000000000,accounts[_serial].balance-1,'TransferMoney');\r\n        }\r\n    }\r\n\r\n\r\n\r\n    //Function to get a loan from the bank the accounts will be virtually updated but the actual ETH will only be transferred if you want to withdraw the amount\r\n    function getLoan(uint256 _amount, uint256 _serial) public payable {\r\n        // if (bankBalance >= _amount / 100000000000000000) {\r\n            accounts[_serial].balance += _amount / 1000000000000000000;\r\n            transacNum++;\r\n            transactions[transacNum] = Transaction(\r\n                transacNum,\r\n                accounts[_serial].balance,\r\n                _amount / 1000000000000000000,\r\n                block.timestamp,\r\n                \"LoanTransaction\",\r\n                _serial\r\n            );\r\n            emit TransactionCompleted(\r\n                _amount / 1000000000000000000,\r\n                transacNum,\r\n                _serial,\r\n                \"LoanTransaction\"\r\n            );\r\n        // }\r\n        \r\n        //  else {\r\n        //     revert(\"Insufficient Funds\");\r\n        //     // revert InsufficientFunds(_serial,_amount/1000000000000000000,bankBalance/10,'LoanTransaction');\r\n        // }\r\n    }\r\n\r\n    function retrieveLoan(\r\n        uint256 _installment,\r\n        uint256 _serial,\r\n        address payable _creator\r\n    ) public payable {\r\n        if (\r\n            accounts[_serial].balance >=\r\n            (_installment / 1000000000000000000) + 1\r\n        ) {\r\n            accounts[_serial].balance -= _installment / 1000000000000000000;\r\n            transacNum++;\r\n            transactions[transacNum] = Transaction(\r\n                transacNum,\r\n                accounts[_serial].balance,\r\n                _installment / 1000000000000000000,\r\n                block.timestamp,\r\n                \"LoanRetrieval\",\r\n                _serial\r\n            );\r\n            emit TransactionCompleted(\r\n                _installment / 1000000000000000000,\r\n                transacNum,\r\n                _serial,\r\n                \"LoanRetrieval\"\r\n            );\r\n        } else {\r\n            addBalance(_serial, _installment, _creator);\r\n\r\n            accounts[_serial].balance -= _installment / 1000000000000000000;\r\n        }\r\n    }\r\n\r\n    \r\n\r\n    //Simple spare function to getBalance of any of the serial accounts won't be of much use but let's see\r\n    function getBalance(uint256 _serial) public view returns (uint256) {\r\n        uint256 bal = accounts[_serial].balance;\r\n        return bal;\r\n    }\r\n\r\n\r\n\r\n    //Function to get the msg.sender's ETH balance\r\n    function getSenderBalance(address payable _account)\r\n        external\r\n        view\r\n        returns (uint256)\r\n    {\r\n        return _account.balance;\r\n    }\r\n\r\n    //Function to get the contract's existing balance\r\n    function getContractBalance() external view returns (uint256) {\r\n        return address(this).balance;\r\n    }\r\n\r\n    //Function to get the owner\r\n    function getOwner() public view returns (address) {\r\n        return msg.sender;\r\n    }\r\n}\r\n\r\n\r\n",
  "sourcePath": "C:\\Users\\meetr\\OneDrive\\Desktop\\Jatin Yadav\\JCBUST\\Project\\Project Sem 5\\ETHEREAL-main-KYC details\\contracts\\Banking.sol",
  "compiler": {
    "name": "solc",
    "version": "0.5.16+commit.9c3226ce.Emscripten.clang"
  },
  "schemaVersion": "3.4.16",
  "updatedAt": "2024-12-09T02:54:52.180Z",
  "networkType": "ethereum",
  "devdoc": {
    "methods": {}
  },
  "userdoc": {
    "methods": {}
  }
}